01202310296358100256SETTLEBANK                                                                                                                                                                                                                                                                                                                                                                                  
10ezob0614                                                                                                                                                                                                                                                                                                                                                                                                      
1102023102863581002564805300463SOFP_PGCAezob0614000231028000051S395053900KCS1028000051002004                                                                                 00000000040000000000000040000020231028415101                                                                                                                                                                                       
1102023102863581002561908502365SOFP_PGCAezob0614000231028000051S395053900KCS1028000051002004                                                                                 00000000040000000000000040000020231028415102                                                                                                                                                                                       
1102023102863581002564805300463SOFP_PGCAezob0614000231028011026S251207000KCS1028011026002038                                                                                 00000000010000000000000010000020231028415348                                                                                                                                                                                       
1102023102863581002561908502365SOFP_PGCAezob0614000231028011026S251207000KCS1028011026002038                                                                                 00000000010000000000000010000020231028415349                                                                                                                                                                                       
1200000041000000                                                                                                                                                                                                                                                                                                                                                                                                
10ezob0204                                                                                                                                                                                                                                                                                                                                                                                                      
1102023102863581002563478703004SOFP_PGCAezob0204000231028000353S297714900KVN1028000353140076                                                                                 00000000131000000000000131000020231028415106                                                                                                                                                                                       
1102023102863581002563478703004SOFP_PGCAezob0204000231028223034S219609200KVN1028223034127306                                                                                 00000000110000000000000110000020231028420967                                                                                                                                                                                       
1200000022410000                                                                                                                                                                                                                                                                                                                                                                                                
10ezpg0155                                                                                                                                                                                                                                                                                                                                                                                                      
1102023102863581002563510802561SOFP_PGCAezpg0155000231028000438S238734900KVN1028000438086435                                                                                 00000000000700000000000000700020231028415108                                                                                                                                                                                       
1102023102863581002563510802561SOFP_PGCAezpg0155000231028000621S234594900KVN1028000621121161                                                                                 00000000000350000000000000350020231028415120                                                                                                                                                                                       
1102023102863581002563510802561SOFP_PGCAezpg0155000231028002616S136030000KVN1028002616095676                                                                                 00000000001350000000000001350020231028415201                                                                                                                                                                                       
1102023102863581002563510802561SOFP_PGCAezpg0155000231028004137S155092000KVN1028004137062495                                                                                 00000000000700000000000000700020231028415243                                                                                                                                                                                       
1102023102863581002563510802561SOFP_PGCAezpg0155000231028014610S393021100KVN1028014610097447                                                                                 00000000001400000000000001400020231028415480                                                                                                                                                                                       
1102023102863581002563510802561SOFP_PGCAezpg0155000231028121146S178978600KVN1028121146169840                                                                                 00000000000650000000000000650020231028416154                                                                                                                                                                                       
1102023102863581002563510802561SOFP_PGCAezpg0155000231028125024S115316700KVN1028125024151314                                                                                 00000000000350000000000000350020231028416285                                                                                                                                                                                       
1102023102863581002563510802561SOFP_PGCAezpg0155000231028132351S199903800KVN1028132351104874                                                                                 00000000000350000000000000350020231028416463                                                                                                                                                                                       
1102023102863581002563510802561SOFP_PGCAezpg0155000231028133251S134394800KVN1028133251089622                                                                                 00000000000350000000000000350020231028416502                                                                                                                                                                                       
1102023102863581002563510802561SOFP_PGCAezpg0155000231028135113S255078800KVN1028135113110778                                                                                 00000000000650000000000000650020231028416576                                                                                                                                                                                       
1102023102863581002563510802561SOFP_PGCAezpg0155000231028135151S355388800KVN1028135151101964                                                                                 00000000000350000000000000350020231028416578                                                                                                                                                                                       
1102023102863581002563510802561SOFP_PGCAezpg0155000231028135213S119098800KVN1028135213191707                                                                                 00000000000350000000000000350020231028416580                                                                                                                                                                                       
1102023102863581002563510802561SOFP_PGCAezpg0155000231028135259S276609800KVN1028135259138185                                                                                 00000000000350000000000000350020231028416585                                                                                                                                                                                       
1102023102863581002563510802561SOFP_PGCAezpg0155000231028143818S211409900KVN1028143818111155                                                                                 00000000000650000000000000650020231028416814                                                                                                                                                                                       
1102023102863581002563510802561SOFP_PGCAezpg0155000231028144732S270511000KVN1028144732130943                                                                                 00000000001400000000000001400020231028416863                                                                                                                                                                                       
1102023102863581002563510802561SOFP_PGCAezpg0155000231028153337S155002100KVN1028153337104303                                                                                 00000000000650000000000000650020231028417125                                                                                                                                                                                       
1102023102863581002563510802561SOFP_PGCAezpg0155000231028155856S153138100KVN1028155856146392                                                                                 00000000000650000000000000650020231028417272                                                                                                                                                                                       
1102023102863581002563510802561SOFP_PGCAezpg0155000231028160436S213789100KVN1028160436061312                                                                                 00000000001050000000000001050020231028417314                                                                                                                                                                                       
1102023102863581002563510802561SOFP_PGCAezpg0155000231028162523S174145200KVN1028162523140269                                                                                 00000000000650000000000000650020231028417442                                                                                                                                                                                       
1102023102863581002563510802561SOFP_PGCAezpg0155000231028163219S353137200KVN1028163219106337                                                                                 00000000000900000000000000900020231028417477                                                                                                                                                                                       
1102023102863581002563510802561SOFP_PGCAezpg0155000231028163306S297557200KVN1028163306187673                                                                                 00000000000650000000000000650020231028417480                                                                                                                                                                                       
1102023102863581002563510802561SOFP_PGCAezpg0155000231028163410S238387200KVN1028163410098446                                                                                 00000000001650000000000001650020231028417483                                                                                                                                                                                       
1102023102863581002563510802561SOFP_PGCAezpg0155000231028170430S113856300KVN1028170430063608                                                                                 00000000001000000000000001000020231028417678                                                                                                                                                                                       
1102023102863581002563510802561SOFP_PGCAezpg0155000231028171433S195359300KVN1028171433159323                                                                                 00000000000350000000000000350020231028417746                                                                                                                                                                                       
1102023102863581002563510802561SOFP_PGCAezpg0155000231028172310S159612400KVN1028172310197103                                                                                 00000000000350000000000000350020231028417821                                                                                                                                                                                       
1102023102863581002563510802561SOFP_PGCAezpg0155000231028172406S230742400KVN1028172406134876                                                                                 00000000000650000000000000650020231028417827                                                                                                                                                                                       
1102023102863581002563510802561SOFP_PGCAezpg0155000231028172438S151462400KVN1028172438171572                                                                                 00000000000650000000000000650020231028417833                                                                                                                                                                                       
1102023102863581002563510802561SOFP_PGCAezpg0155000231028175224S293271500KVN1028175224139703                                                                                 00000000001750000000000001750020231028418088                                                                                                                                                                                       
1102023102863581002563510802561SOFP_PGCAezpg0155000231028180635S195276500KVN1028180635107030                                                                                 00000000000350000000000000350020231028418213                                                                                                                                                                                       
1102023102863581002563510802561SOFP_PGCAezpg0155000231028184235S276459600KVN1028184235158597                                                                                 00000000000700000000000000700020231028418574                                                                                                                                                                                       
1102023102863581002563510802561SOFP_PGCAezpg0155000231028184525S338550700KVN1028184525065642                                                                                 00000000000650000000000000650020231028418604                                                                                                                                                                                       
1102023102863581002563510802561SOFP_PGCAezpg0155000231028185640S234174700KVN1028185640142743                                                                                 00000000000900000000000000900020231028418743                                                                                                                                                                                       
1102023102863581002563510802561SOFP_PGCAezpg0155000231028190432S232077700KVN1028190432069768                                                                                 00000000000650000000000000650020231028418797                                                                                                                                                                                       
1102023102863581002563510802561SOFP_PGCAezpg0155000231028190605S374728700KVN1028190605119082                                                                                 00000000000350000000000000350020231028418845                                                                                                                                                                                       
1102023102863581002563510802561SOFP_PGCAezpg0155000231028191211S351840800KVN1028191211147644                                                                                 00000000000350000000000000350020231028418944                                                                                                                                                                                       
1102023102863581002563510802561SOFP_PGCAezpg0155000231028192556S253955800KVN1028192556139991                                                                                 00000000001550000000000001550020231028419097                                                                                                                                                                                       
1102023102863581002563510802561SOFP_PGCAezpg0155000231028194613S330073900KVN1028194613153586                                                                                 00000000000350000000000000350020231028419355                                                                                                                                                                                       
1102023102863581002563510802561SOFP_PGCAezpg0155000231028194800S274744900KVN1028194800144766                                                                                 00000000000350000000000000350020231028419413                                                                                                                                                                                       
1102023102863581002563510802561SOFP_PGCAezpg0155000231028202731S132574000KVN1028202731169896                                                                                 00000000000700000000000000700020231028419898                                                                                                                                                                                       
1102023102863581002563510802561SOFP_PGCAezpg0155000231028203106S332645000KVN1028203106063009                                                                                 00000000000650000000000000650020231028419955                                                                                                                                                                                       
1102023102863581002563510802561SOFP_PGCAezpg0155000231028204222S191747000KVN1028204222180404                                                                                 00000000001300000000000001300020231028420066                                                                                                                                                                                       
1102023102863581002563510802561SOFP_PGCAezpg0155000231028205639S215910100KVN1028205639066697                                                                                 00000000001300000000000001300020231028420238                                                                                                                                                                                       
1102023102863581002563510802561SOFP_PGCAezpg0155000231028210257S138831100KVN1028210257165002                                                                                 00000000001300000000000001300020231028420289                                                                                                                                                                                       
1102023102863581002563510802561SOFP_PGCAezpg0155000231028210511S238181100KVN1028210511091343                                                                                 00000000000700000000000000700020231028420319                                                                                                                                                                                       
1102023102863581002563510802561SOFP_PGCAezpg0155000231028215148S215290200KVN1028215148179748                                                                                 00000000000350000000000000350020231028420709                                                                                                                                                                                       
1102023102863581002563510802561SOFP_PGCAezpg0155000231028215454S255351200KVN1028215454097434                                                                                 00000000000350000000000000350020231028420719                                                                                                                                                                                       
1102023102863581002563510802561SOFP_PGCAezpg0155000231028215623S259381200KVN1028215623070639                                                                                 00000000000350000000000000350020231028420733                                                                                                                                                                                       
1102023102863581002563510802561SOFP_PGCAezpg0155000231028220909S113654200KVN1028220909151065                                                                                 00000000001750000000000001750020231028420835                                                                                                                                                                                       
1102023102863581002563510802561SOFP_PGCAezpg0155000231028222821S134858200KVN1028222821152549                                                                                 00000000000650000000000000650020231028420954                                                                                                                                                                                       
1102023102863581002563510802561SOFP_PGCAezpg0155000231028223630S291520300KVN1028223630069668                                                                                 00000000001300000000000001300020231028421007                                                                                                                                                                                       
1102023102863581002563510802561SOFP_PGCAezpg0155000231028224411S397071300KVN1028224411090755                                                                                 00000000000350000000000000350020231028421056                                                                                                                                                                                       
1102023102863581002563510802561SOFP_PGCAezpg0155000231028224704S215622300KVN1028224704192356                                                                                 00000000000350000000000000350020231028421062                                                                                                                                                                                       
120000052385000                                                                                                                                                                                                                                                                                                                                                                                                 
10ezpg0126                                                                                                                                                                                                                                                                                                                                                                                                      
1102023102863581002564548603061SOFP_PGCAezpg0126000231028000503S170154900KVN1028000503112844                                                                                 00000000002300000000000002300020231028415110                                                                                                                                                                                       
1102023102863581002564548603061SOFP_PGCAezpg0126000231028000617S251294900KVN1028000617086342                                                                                 00000000010000000000000010000020231028415119                                                                                                                                                                                       
1102023102863581002564548603061SOFP_PGCAezpg0126000231028000704S132615900KVN1028000704103944                                                                                 00000000002400000000000002400020231028415123                                                                                                                                                                                       
1102023102863581002564548603061SOFP_PGCAezpg0126000231028000949S295785900KVN1028000949113010                                                                                 00000000025000000000000025000020231028415140                                                                                                                                                                                       
1102023102863581002564548603061SOFP_PGCAezpg0126000231028001058S219516900KVN1028001058186896                                                                                 00000000028000000000000028000020231028415141                                                                                                                                                                                       
1112023102863581002564548603061SOFP_PGCAezpg0126000231028000949S295785901KVN1028000949113010                                                                                 00000000025000000000000025000020231028415149                                                                                                                                                                                       
1102023102863581002564548603061SOFP_PGCAezpg0126000231028001359S195996900KVN1028001359061645                                                                                 00000000022000000000000022000020231028415150                                                                                                                                                                                       
1102023102863581002564548603061SOFP_PGCAezpg0126000231028001616S157957900KVN1028001616095364                                                                                 00000000002000000000000002000020231028415154                                                                                                                                                                                       
1102023102863581002564548603061SOFP_PGCAezpg0126000231028001643S113277900KVN1028001643112649                                                                                 00000000001600000000000001600020231028415155                                                                                                                                                                                       
1102023102863581002564548603061SOFP_PGCAezpg0126000231028002051S272188900KVN1028002051121655                                                                                 00000000000300000000000000300020231028415175                                                                                                                                                                                       
1102023102863581002564548603061SOFP_PGCAezpg0126000231028002119S219598900KVN1028002119149377                                                                                 00000000090000000000000090000020231028415182                                                                                                                                                                                       
1102023102863581002564548603061SOFP_PGCAezpg0126000231028002501S174000000KVN1028002501169106                                                                                 00000000025000000000000025000020231028415191                                                                                                                                                                                       
1102023102863581002564548603061SOFP_PGCAezpg0126000231028002601S191620000KVN1028002601185337                                                                                 00000000125000000000000125000020231028415198                                                                                                                                                                                       
1102023102863581002564548603061SOFP_PGCAezpg0126000231028003059S399211000KVN1028003059095701                                                                                 00000000028000000000000028000020231028415217                                                                                                                                                                                       
1102023102863581002564548603061SOFP_PGCAezpg0126000231028003955S351462000KVN1028003955113970                                                                                 00000000002000000000000002000020231028415240                                                                                                                                                                                       
1102023102863581002564548603061SOFP_PGCAezpg0126000231028004104S370282000KVN1028004104167845                                                                                 00000000002000000000000002000020231028415242                                                                                                                                                                                       
1102023102863581002564548603061SOFP_PGCAezpg0126000231028005235S311154000KVN1028005235131433                                                                                 00000000028000000000000028000020231028415282                                                                                                                                                                                       
1102023102863581002564548603061SOFP_PGCAezpg0126000231028005655S297315000KVN1028005655087878                                                                                 00000000006800000000000006800020231028415303                                                                                                                                                                                       
1102023102863581002564548603061SOFP_PGCAezpg0126000231028010314S211306000KVN1028010314123668                                                                                 00000000002500000000000002500020231028415327                                                                                                                                                                                       
1102023102863581002564548603061SOFP_PGCAezpg0126000231028010450S153526000KVN1028010450122875                                                                                 00000000028000000000000028000020231028415333                                                                                                                                                                                       
1102023102863581002564548603061SOFP_PGCAezpg0126000231028011223S315727000KVN1028011223114794                                                                                 00000000075000000000000075000020231028415351                                                                                                                                                                                       
1102023102863581002564548603061SOFP_PGCAezpg0126000231028011238S234037000KVN1028011238114802                                                                                 00000000000800000000000000800020231028415355                                                                                                                                                                                       
1102023102863581002564548603061SOFP_PGCAezpg0126000231028011344S170447000KVN1028011344188672                                                                                 00000000000600000000000000600020231028415362                                                                                                                                                                                       
1102023102863581002564548603061SOFP_PGCAezpg0126000231028011555S113177000KVN1028011555105485                                                                                 00000000001000000000000001000020231028415371                                                                                                                                                                                       
1102023102863581002564548603061SOFP_PGCAezpg0126000231028011744S274297000KVN1028011744065932                                                                                 00000000004000000000000004000020231028415373                                                                                                                                                                                       
1102023102863581002564548603061SOFP_PGCAezpg0126000231028011846S274508000KVN1028011846096927                                                                                 00000000001000000000000001000020231028415383                                                                                                                                                                                       
1102023102863581002564548603061SOFP_PGCAezpg0126000231028011929S359418000KVN1028011929114952                                                                                 00000000000600000000000000600020231028415391                                                                                                                                                                                       
1102023102863581002564548603061SOFP_PGCAezpg0126000231028011947S255818000KVN1028011947065974                                                                                 00000000028000000000000028000020231028415392                                                                                                                                                                                       
1102023102863581002564548603061SOFP_PGCAezpg0126000231028012623S311009000KVN1028012623114463                                                                                 00000000004000000000000004000020231028415409                                                                                                                                                                                       
1102023102863581002564548603061SOFP_PGCAezpg0126000231028013227S174279000KVN1028013227051807                                                                                 00000000002400000000000002400020231028415434                                                                                                                                                                                       
1102023102863581002564548603061SOFP_PGCAezpg0126000231028013359S217989000KVN1028013359071026                                                                                 00000000001600000000000001600020231028415445                                                                                                                                                                                       
1102023102863581002564548603061SOFP_PGCAezpg0126000231028013450S357799000KVN1028013450196081                                                                                 00000000000900000000000000900020231028415450                                                                                                                                                                                       
1102023102863581002564548603061SOFP_PGCAezpg0126000231028013754S111530100KVN1028013754106336                                                                                 00000000004000000000000004000020231028415458                                                                                                                                                                                       
1102023102863581002564548603061SOFP_PGCAezpg0126000231028014644S259621100KVN1028014644161062                                                                                 00000000001200000000000001200020231028415481                                                                                                                                                                                       
1102023102863581002564548603061SOFP_PGCAezpg0126000231028014808S157141100KVN1028014808053478                                                                                 00000000007200000000000007200020231028415494                                                                                                                                                                                       
1102023102863581002564548603061SOFP_PGCAezpg0126000231028015622S238922100KVN1028015622170386                                                                                 00000000023000000000000023000020231028415513                                                                                                                                                                                       
1102023102863581002564548603061SOFP_PGCAezpg0126000231028015811S370742100KVN1028015811189518                                                                                 00000000000500000000000000500020231028415519                                                                                                                                                                                       
1102023102863581002564548603061SOFP_PGCAezpg0126000231028020306S170492100KVN1028020306150611                                                                                 00000000001000000000000001000020231028415529                                                                                                                                                                                       
1102023102863581002564548603061SOFP_PGCAezpg0126000231028020933S172453100KVN1028020933124936                                                                                 00000000023000000000000023000020231028415560                                                                                                                                                                                       
1102023102863581002564548603061SOFP_PGCAezpg0126000231028021422S193104100KVN1028021422133031                                                                                 00000000025000000000000025000020231028415575                                                                                                                                                                                       
1102023102863581002564548603061SOFP_PGCAezpg0126000231028021525S170114100KVN1028021525098068                                                                                 00000000001000000000000001000020231028415583                                                                                                                                                                                       
1102023102863581002564548603061SOFP_PGCAezpg0126000231028021955S174054100KVN1028021955053978                                                                                 00000000003500000000000003500020231028415601                                                                                                                                                                                       
1102023102863581002564548603061SOFP_PGCAezpg0126000231028022814S278125100KVN1028022814169937                                                                                 00000000001000000000000001000020231028415620                                                                                                                                                                                       
1102023102863581002564548603061SOFP_PGCAezpg0126000231028023817S134606100KVN1028023817161834                                                                                 00000000028000000000000028000020231028415660                                                                                                                                                                                       
1102023102863581002564548603061SOFP_PGCAezpg0126000231028024755S355976100KVN1028024755152796                                                                                 00000000006000000000000006000020231028415680                                                                                                                                                                                       
1102023102863581002564548603061SOFP_PGCAezpg0126000231028030454S276697100KVN1028030454162130                                                                                 00000000002000000000000002000020231028415707                                                                                                                                                                                       
1102023102863581002564548603061SOFP_PGCAezpg0126000231028031430S178858100KVN1028031430125714                                                                                 00000000000600000000000000600020231028415717                                                                                                                                                                                       
1102023102863581002564548603061SOFP_PGCAezpg0126000231028031821S315188100KVN1028031821179393                                                                                 00000000028000000000000028000020231028415718                                                                                                                                                                                       
1102023102863581002564548603061SOFP_PGCAezpg0126000231028032543S370329100KVN1028032543067752                                                                                 00000000001000000000000001000020231028415725                                                                                                                                                                                       
1102023102863581002564548603061SOFP_PGCAezpg0126000231028041151S217431200KVN1028041151188855                                                                                 00000000006000000000000006000020231028415780                                                                                                                                                                                       
1102023102863581002564548603061SOFP_PGCAezpg0126000231028044404S315162200KVN1028044404134385                                                                                 00000000002800000000000002800020231028415802                                                                                                                                                                                       
1102023102863581002564548603061SOFP_PGCAezpg0126000231028044625S170962200KVN1028044625161117                                                                                 00000000001600000000000001600020231028415804                                                                                                                                                                                       
1102023102863581002564548603061SOFP_PGCAezpg0126000231028045834S291903200KVN1028045834099341                                                                                 00000000002000000000000002000020231028415815                                                                                                                                                                                       
1102023102863581002564548603061SOFP_PGCAezpg0126000231028221056S136594200KVN1028221056188121                                                                                 00000000003000000000000003000020231028420842                                                                                                                                                                                       
1102023102863581002564548603061SOFP_PGCAezpg0126000231028221808S257056200KVN1028221808144578                                                                                 00000000250000000000000250000020231028420906                                                                                                                                                                                       
1102023102863581002564548603061SOFP_PGCAezpg0126000231028223950S238580300KVN1028223950090475                                                                                 00000000001600000000000001600020231028421024                                                                                                                                                                                       
1102023102863581002564548603061SOFP_PGCAezpg0126000231028224305S274941300KVN1028224305153565                                                                                 00000000002400000000000002400020231028421049                                                                                                                                                                                       
1102023102863581002564548603061SOFP_PGCAezpg0126000231028225148S211613300KVN1028225148119648                                                                                 00000000025000000000000025000020231028421081                                                                                                                                                                                       
1102023102863581002564548603061SOFP_PGCAezpg0126000231028230151S153705300KVN1028230151068327                                                                                 00000000001100000000000001100020231028421132                                                                                                                                                                                       
1102023102863581002564548603061SOFP_PGCAezpg0126000231028230346S111245300KVN1028230346145925                                                                                 00000000001600000000000001600020231028421144                                                                                                                                                                                       
1102023102863581002564548603061SOFP_PGCAezpg0126000231028231122S313186300KVN1028231122129864                                                                                 00000000004000000000000004000020231028421164                                                                                                                                                                                       
1102023102863581002564548603061SOFP_PGCAezpg0126000231028231927S113238300KVN1028231927182587                                                                                 00000000001600000000000001600020231028421209                                                                                                                                                                                       
1102023102863581002564548603061SOFP_PGCAezpg0126000231028232634S155859300KVN1028232634057759                                                                                 00000000001000000000000001000020231028421259                                                                                                                                                                                       
1102023102863581002564548603061SOFP_PGCAezpg0126000231028233002S374710400KVN1028233002077516                                                                                 00000000001200000000000001200020231028421278                                                                                                                                                                                       
1102023102863581002564548603061SOFP_PGCAezpg0126000231028233124S153340400KVN1028233124077584                                                                                 00000000001000000000000001000020231028421287                                                                                                                                                                                       
1102023102863581002564548603061SOFP_PGCAezpg0126000231028234340S193542400KVN1028234340167938                                                                                 00000000001100000000000001100020231028421347                                                                                                                                                                                       
1102023102863581002564548603061SOFP_PGCAezpg0126000231028235136S217673400KVN1028235136186534                                                                                 00000000055500000000000055500020231028421402                                                                                                                                                                                       
1102023102863581002564548603061SOFP_PGCAezpg0126000231028235158S255283400KVN1028235158168294                                                                                 00000000055500000000000055500020231028421404                                                                                                                                                                                       
1102023102863581002564548603061SOFP_PGCAezpg0126000231028235637S291754400KVN1028235637168488                                                                                 00000000001000000000000001000020231028421416                                                                                                                                                                                       
12000006911008000                                                                                                                                                                                                                                                                                                                                                                                               
10ezob0414                                                                                                                                                                                                                                                                                                                                                                                                      
1102023102863581002565018602505SOFP_PGCAezob0414000231028000504S25745490050449H1698419104                                                                                    00000000023000000000000023000020231028415111                                                                                                                                                                                       
120000001230000                                                                                                                                                                                                                                                                                                                                                                                                 
10ezob0616                                                                                                                                                                                                                                                                                                                                                                                                      
1102023102863581002565018602505SOFP_PGCAezob0616000231028000537S311274900KVN1028000537063878                                                                                 00000000085000000000000085000020231028415116                                                                                                                                                                                       
1112023102863581002565018602505SOFP_PGCAezob0616000231028000537S311274901KVN1028000537063878                                                                                 00000000085000000000000085000020231028415210                                                                                                                                                                                       
1102023102863581002565018602505SOFP_PGCAezob0616000231028011848S317508000KVN1028011848088529                                                                                 00000000075000000000000075000020231028415385                                                                                                                                                                                       
1102023102863581002565018602505SOFP_PGCAezob0616000231028011920S157218000KVN1028011920065962                                                                                 00000000075000000000000075000020231028415387                                                                                                                                                                                       
1102023102863581002565018602505SOFP_PGCAezob0616000231028013455S134899000KVN1028013455097247                                                                                 00000000035000000000000035000020231028415452                                                                                                                                                                                       
1102023102863581002565018602505SOFP_PGCAezob0616000231028014346S236790100KVN1028014346114785                                                                                 00000000030000000000000030000020231028415474                                                                                                                                                                                       
1200000062150000                                                                                                                                                                                                                                                                                                                                                                                                
10ezob0609                                                                                                                                                                                                                                                                                                                                                                                                      
1102023102863581002565018602505SOFP_PGCAezob0609000231028000555S113184900KVN1028000555177616                                                                                 00000000002000000000000002000020231028415117                                                                                                                                                                                       
1102023102863581002565018602505SOFP_PGCAezob0609000231028000629S172994900KVN1028000629103922                                                                                 00000000002000000000000002000020231028415121                                                                                                                                                                                       
1102023102863581002565018602505SOFP_PGCAezob0609000231028003406S215961000KVN1028003406051780                                                                                 00000000003000000000000003000020231028415229                                                                                                                                                                                       
1102023102863581002565018602505SOFP_PGCAezob0609000231028011323S253047000KVN1028011323168651                                                                                 00000000001000000000000001000020231028415358                                                                                                                                                                                       
1102023102863581002565018602505SOFP_PGCAezob0609000231028013242S238479000KVN1028013242115218                                                                                 00000000002000000000000002000020231028415435                                                                                                                                                                                       
1102023102863581002565018602505SOFP_PGCAezob0609000231028013542S359700100KVN1028013542142554                                                                                 00000000002000000000000002000020231028415453                                                                                                                                                                                       
1102023102863581002565018602505SOFP_PGCAezob0609000231028015629S178032100KVN1028015629198660                                                                                 00000000000500000000000000500020231028415514                                                                                                                                                                                       
1102023102863581002565018602505SOFP_PGCAezob0609000231028023534S199385100KVN1028023534089789                                                                                 00000000001000000000000001000020231028415653                                                                                                                                                                                       
1102023102863581002565018602505SOFP_PGCAezob0609000231028023554S293685100KVN1028023554098193                                                                                 00000000004000000000000004000020231028415655                                                                                                                                                                                       
1102023102863581002565018602505SOFP_PGCAezob0609000231028221132S155805200KVN1028221132098381                                                                                 00000000002000000000000002000020231028420845                                                                                                                                                                                       
1102023102863581002565018602505SOFP_PGCAezob0609000231028221152S213615200KVN1028221152151285                                                                                 00000000001000000000000001000020231028420848                                                                                                                                                                                       
1102023102863581002565018602505SOFP_PGCAezob0609000231028221513S217885200KVN1028221513126148                                                                                 00000000002000000000000002000020231028420878                                                                                                                                                                                       
1102023102863581002565018602505SOFP_PGCAezob0609000231028222709S270438200KVN1028222709066065                                                                                 00000000002000000000000002000020231028420948                                                                                                                                                                                       
1102023102863581002565018602505SOFP_PGCAezob0609000231028230152S293705300KVN1028230152129338                                                                                 00000000002000000000000002000020231028421133                                                                                                                                                                                       
1102023102863581002565018602505SOFP_PGCAezob0609000231028235614S395054400KVN1028235614195898                                                                                 00000000003000000000000003000020231028421410                                                                                                                                                                                       
120000015295000                                                                                                                                                                                                                                                                                                                                                                                                 
10ezob0310                                                                                                                                                                                                                                                                                                                                                                                                      
1102023102863581002564741301554SOFP_PGCAezob0310000231028000749S130435900KCS1028000749002006                                                                                 00000000022000000000000022000020231028415134                                                                                                                                                                                       
1102023102863581002564741301554SOFP_PGCAezob0310000231028001615S370957900KCS1028001615002016                                                                                 00000000003000000000000003000020231028415153                                                                                                                                                                                       
1102023102863581002564741301554SOFP_PGCAezob0310000231028003144S253621000KCS1028003144002024                                                                                 00000000009100000000000009100020231028415218                                                                                                                                                                                       
1102023102863581002564741301554SOFP_PGCAezob0310000231028004550S232553000KCS1028004550002028                                                                                 00000000003500000000000003500020231028415258                                                                                                                                                                                       
1102023102863581002564741301554SOFP_PGCAezob0310000231028005431S115974000KCS1028005431002032                                                                                 00000000013400000000000013400020231028415297                                                                                                                                                                                       
1102023102863581002564741301554SOFP_PGCAezob0310000231028011710S113687000KCS1028011710002040                                                                                 00000000001200000000000001200020231028415372                                                                                                                                                                                       
1102023102863581002564741301554SOFP_PGCAezob0310000231028041737S138951200KCS1028041737002054                                                                                 00000000010000000000000010000020231028415784                                                                                                                                                                                       
1102023102863581002564741301554SOFP_PGCAezob0310000231028042625S136191200KCS1028042625002056                                                                                 00000000007800000000000007800020231028415791                                                                                                                                                                                       
1102023102863581002564741301554SOFP_PGCAezob0310000231028212553S315385100KCS1028212553002526                                                                                 00000000004000000000000004000020231028420509                                                                                                                                                                                       
1102023102863581002564741301554SOFP_PGCAezob0310000231028224438S138771300KCS1028224438002554                                                                                 00000000007100000000000007100020231028421057                                                                                                                                                                                       
1102023102863581002564741301554SOFP_PGCAezob0310000231028230230S315815300KCS1028230230002560                                                                                 00000000003400000000000003400020231028421135                                                                                                                                                                                       
1102023102863581002564741301554SOFP_PGCAezob0310000231028231520S255557300KCS1028231520002568                                                                                 00000000004300000000000004300020231028421188                                                                                                                                                                                       
1102023102863581002564741301554SOFP_PGCAezob0310000231028231815S234118300KCS1028231815002572                                                                                 00000000008300000000000008300020231028421204                                                                                                                                                                                       
1102023102863581002564741301554SOFP_PGCAezob0310000231028233252S115860400KCS1028233252002574                                                                                 00000000003500000000000003500020231028421291                                                                                                                                                                                       
1102023102863581002564741301554SOFP_PGCAezob0310000231028235909S155994400KCS1028235909002586                                                                                 00000000002600000000000002600020231028421422                                                                                                                                                                                       
1200000151032000                                                                                                                                                                                                                                                                                                                                                                                                
10ezob0605                                                                                                                                                                                                                                                                                                                                                                                                      
1102023102863581002565018602505SOFP_PGCAezob0605000231028000805S15904590051788H1698419285                                                                                    00000000006100000000000006100020231028415135                                                                                                                                                                                       
1102023102863581002565018602505SOFP_PGCAezob0605000231028004852S17099300051788H1698421732                                                                                    00000000003500000000000003500020231028415274                                                                                                                                                                                       
1102023102863581002565018602505SOFP_PGCAezob0605000231028004940S39301400051788H1698421780                                                                                    00000000003500000000000003500020231028415277                                                                                                                                                                                       
1102023102863581002565018602505SOFP_PGCAezob0605000231028014113S39586010051788H1698424873                                                                                    00000000004800000000000004800020231028415459                                                                                                                                                                                       
1102023102863581002565018602505SOFP_PGCAezob0605000231028014316S35919010051788H1698424996                                                                                    00000000005000000000000005000020231028415470                                                                                                                                                                                       
1102023102863581002565018602505SOFP_PGCAezob0605000231028023808S15940610051788H1698428288                                                                                    00000000005090000000000005090020231028415657                                                                                                                                                                                       
1102023102863581002565018602505SOFP_PGCAezob0605000231028040157S17849020051788H1698433317                                                                                    00000000006000000000000006000020231028415774                                                                                                                                                                                       
1102023102863581002565018602505SOFP_PGCAezob0605000231028204340S39917700051788H1698493420                                                                                    00000000004590000000000004590020231028420077                                                                                                                                                                                       
1102023102863581002565018602505SOFP_PGCAezob0605000231028212628S19759510051788H1698495987                                                                                    00000000003500000000000003500020231028420512                                                                                                                                                                                       
1102023102863581002565018602505SOFP_PGCAezob0605000231028214643S17229910051788H1698497202                                                                                    00000000000500000000000000500020231028420667                                                                                                                                                                                       
1102023102863581002565018602505SOFP_PGCAezob0605000231028220256S19542320051788H1698498176                                                                                    00000000005390000000000005390020231028420798                                                                                                                                                                                       
1102023102863581002565018602505SOFP_PGCAezob0605000231028222129S19581720051788H1698499289                                                                                    00000000007400000000000007400020231028420923                                                                                                                                                                                       
1102023102863581002565018602505SOFP_PGCAezob0605000231028223025S17630920051788H1698499825                                                                                    00000000004000000000000004000020231028420961                                                                                                                                                                                       
1102023102863581002565018602505SOFP_PGCAezob0605000231028224241S11314130051788H1698500561                                                                                    00000000003000000000000003000020231028421035                                                                                                                                                                                       
1102023102863581002565018602505SOFP_PGCAezob0605000231028232741S27008930051788H1698503261                                                                                    00000000006690000000000006690020231028421265                                                                                                                                                                                       
120000015690600                                                                                                                                                                                                                                                                                                                                                                                                 
10ezpg0040                                                                                                                                                                                                                                                                                                                                                                                                      
1102023102863581002563478703004SOFP_PGCAezpg0040000231028000842S1766559003374H1698419322                                                                                     00000000004600000000000004600020231028415138                                                                                                                                                                                       
1102023102863581002563478703004SOFP_PGCAezpg0040000231028002527S2722100003374H1698420326                                                                                     00000000005600000000000005600020231028415192                                                                                                                                                                                       
1102023102863581002563478703004SOFP_PGCAezpg0040000231028002634S1996300003374H1698420394                                                                                     00000000000600000000000000600020231028415202                                                                                                                                                                                       
1102023102863581002563478703004SOFP_PGCAezpg0040000231028005406S1192740003374H1698422045                                                                                     00000000003500000000000003500020231028415294                                                                                                                                                                                       
1102023102863581002563478703004SOFP_PGCAezpg0040000231028010421S1700260003374H1698422660                                                                                     00000000003600000000000003600020231028415331                                                                                                                                                                                       
1102023102863581002563478703004SOFP_PGCAezpg0040000231028010725S1789560003374H1698422845                                                                                     00000000000500000000000000500020231028415336                                                                                                                                                                                       
1102023102863581002563478703004SOFP_PGCAezpg0040000231028033834S3937891003374H1698431913                                                                                     00000000003500000000000003500020231028415742                                                                                                                                                                                       
1102023102863581002563478703004SOFP_PGCAezpg0040000231028034005S2706991003374H1698432005                                                                                     00000000003000000000000003000020231028415744                                                                                                                                                                                       
1102023102863581002563478703004SOFP_PGCAezpg0040000231028034035S1768991003374H1698432035                                                                                     00000000003000000000000003000020231028415746                                                                                                                                                                                       
1102023102863581002563478703004SOFP_PGCAezpg0040000231028034214S1918002003374H1698432134                                                                                     00000000002000000000000002000020231028415750                                                                                                                                                                                       
1102023102863581002563478703004SOFP_PGCAezpg0040000231028042719S3934912003374H1698434839                                                                                     00000000001000000000000001000020231028415792                                                                                                                                                                                       
1102023102863581002563478703004SOFP_PGCAezpg0040000231028175948S3303345003374H1698483588                                                                                     00000000003500000000000003500020231028418165                                                                                                                                                                                       
1102023102863581002563478703004SOFP_PGCAezpg0040000231028180117S2302845003374H1698483677                                                                                     00000000002600000000000002600020231028418178                                                                                                                                                                                       
1102023102863581002563478703004SOFP_PGCAezpg0040000231028182315S1519626003374H1698484995                                                                                     00000000001600000000000001600020231028418374                                                                                                                                                                                       
1102023102863581002563478703004SOFP_PGCAezpg0040000231028184920S3931027003374H1698486559                                                                                     00000000005500000000000005500020231028418641                                                                                                                                                                                       
1102023102863581002563478703004SOFP_PGCAezpg0040000231028194706S1347049003374H1698490026                                                                                     00000000003000000000000003000020231028419369                                                                                                                                                                                       
1102023102863581002563478703004SOFP_PGCAezpg0040000231028194810S1555549003374H1698490090                                                                                     00000000003500000000000003500020231028419418                                                                                                                                                                                       
1102023102863581002563478703004SOFP_PGCAezpg0040000231028201415S1538220003374H1698491655                                                                                     00000000004700000000000004700020231028419767                                                                                                                                                                                       
1102023102863581002563478703004SOFP_PGCAezpg0040000231028201804S1742030003374H1698491884                                                                                     00000000000800000000000000800020231028419795                                                                                                                                                                                       
1102023102863581002563478703004SOFP_PGCAezpg0040000231028204644S3591380003374H1698493604                                                                                     00000000001400000000000001400020231028420124                                                                                                                                                                                       
1102023102863581002563478703004SOFP_PGCAezpg0040000231028210831S1707421003374H1698494911                                                                                     00000000007400000000000007400020231028420339                                                                                                                                                                                       
1102023102863581002563478703004SOFP_PGCAezpg0040000231028211007S2768721003374H1698495007                                                                                     00000000003700000000000003700020231028420348                                                                                                                                                                                       
1102023102863581002563478703004SOFP_PGCAezpg0040000231028212314S2342351003374H1698495794                                                                                     00000000004300000000000004300020231028420478                                                                                                                                                                                       
1102023102863581002563478703004SOFP_PGCAezpg0040000231028212858S1383461003374H1698496138                                                                                     00000000004500000000000004500020231028420533                                                                                                                                                                                       
1102023102863581002563478703004SOFP_PGCAezpg0040000231028213853S3749381003374H1698496733                                                                                     00000000003100000000000003100020231028420622                                                                                                                                                                                       
1102023102863581002563478703004SOFP_PGCAezpg0040000231028220209S3709032003374H1698498129                                                                                     00000000003500000000000003500020231028420787                                                                                                                                                                                       
1102023102863581002563478703004SOFP_PGCAezpg0040000231028223026S1593092003374H1698499826                                                                                     00000000003500000000000003500020231028420964                                                                                                                                                                                       
1102023102863581002563478703004SOFP_PGCAezpg0040000231028223306S1139592003374H1698499986                                                                                     00000000000700000000000000700020231028420978                                                                                                                                                                                       
1102023102863581002563478703004SOFP_PGCAezpg0040000231028223348S2134792003374H1698500028                                                                                     00000000000600000000000000600020231028420988                                                                                                                                                                                       
1102023102863581002563478703004SOFP_PGCAezpg0040000231028224143S1990213003374H1698500503                                                                                     00000000006000000000000006000020231028421028                                                                                                                                                                                       
1102023102863581002563478703004SOFP_PGCAezpg0040000231028224242S3171413003374H1698500562                                                                                     00000000001500000000000001500020231028421038                                                                                                                                                                                       
1102023102863581002563478703004SOFP_PGCAezpg0040000231028224958S1991823003374H1698500998                                                                                     00000000002600000000000002600020231028421072                                                                                                                                                                                       
1102023102863581002563478703004SOFP_PGCAezpg0040000231028230320S2114353003374H1698501800                                                                                     00000000009200000000000009200020231028421142                                                                                                                                                                                       
1102023102863581002563478703004SOFP_PGCAezpg0040000231028232220S3174883003374H1698502940                                                                                     00000000003200000000000003200020231028421227                                                                                                                                                                                       
1102023102863581002563478703004SOFP_PGCAezpg0040000231028232758S1554893003374H1698503278                                                                                     00000000005500000000000005500020231028421270                                                                                                                                                                                       
1102023102863581002563478703004SOFP_PGCAezpg0040000231028234605S1194824003374H1698504365                                                                                     00000000003400000000000003400020231028421357                                                                                                                                                                                       
1200000361202000                                                                                                                                                                                                                                                                                                                                                                                                
10ezob0330                                                                                                                                                                                                                                                                                                                                                                                                      
1102023102863581002565018602505SOFP_PGCAezob0330000231028001203S130546900KVN1028001203064102                                                                                 00000000001900000000000001900020231028415143                                                                                                                                                                                       
1102023102863581002565018602505SOFP_PGCAezob0330000231028001937S151948900KVN1028001937051336                                                                                 00000000002500000000000002500020231028415168                                                                                                                                                                                       
1102023102863581002565018602505SOFP_PGCAezob0330000231028012837S270729000KVN1028012837097264                                                                                 00000000003900000000000003900020231028415423                                                                                                                                                                                       
1102023102863581002565018602505SOFP_PGCAezob0330000231028014701S293031100KVN1028014701097600                                                                                 00000000006000000000000006000020231028415486                                                                                                                                                                                       
1102023102863581002565018602505SOFP_PGCAezob0330000231028014850S270941100KVN1028014850124588                                                                                 00000000004400000000000004400020231028415495                                                                                                                                                                                       
1102023102863581002565018602505SOFP_PGCAezob0330000231028021943S319844100KVN1028021943196805                                                                                 00000000002900000000000002900020231028415593                                                                                                                                                                                       
1102023102863581002565018602505SOFP_PGCAezob0330000231028175820S138883500KVN1028175820087499                                                                                 00000000002100000000000002100020231028418139                                                                                                                                                                                       
1102023102863581002565018602505SOFP_PGCAezob0330000231028185904S119955700KVN1028185904068604                                                                                 00000000001800000000000001800020231028418756                                                                                                                                                                                       
1102023102863581002565018602505SOFP_PGCAezob0330000231028191041S276199700KVN1028191041136879                                                                                 00000000001900000000000001900020231028418881                                                                                                                                                                                       
1102023102863581002565018602505SOFP_PGCAezob0330000231028191107S319600800KVN1028191107119231                                                                                 00000000003000000000000003000020231028418928                                                                                                                                                                                       
1102023102863581002565018602505SOFP_PGCAezob0330000231028192638S317785800KVN1028192638086758                                                                                 00000000001900000000000001900020231028419124                                                                                                                                                                                       
1102023102863581002565018602505SOFP_PGCAezob0330000231028195735S330768900KVN1028195735090939                                                                                 00000000001700000000000001700020231028419532                                                                                                                                                                                       
